:100000000C9434000C943E000C943E000C943E0082
:100010000C943E000C943E000C943E000C943E0068
:100020000C943E000C943E000C943E000C943E0058
:100030000C943E000C943E000C943E000C943E0048
:100040000C943E000C943E000C943E000C943E0038
:100050000C943E000C943E000C943E000C943E0028
:100060000C943E000C943E0011241FBECFEFD8E04C
:10007000DEBFCDBF0E9471000C94CF000C94000035
:1000800087E690E09093C5008093C400E1ECF0E037
:1000900080818860808380818061808380818068A6
:1000A0008083E2ECF0E08081846080830895909109
:1000B000C00095FFFCCF8093C6000895CF93DF93D7
:1000C000EC018991882319F00E945700FACFDF9143
:1000D000CF9108958091C00087FFFCCF8091C6002A
:1000E00008958AB18C6F8AB984B1836084B90E9403
:1000F000400080E02FEF33ED90E3215030409040FE
:10010000E1F700C000009BB193709BB995B19C7F53
:1001100095B99BB1282F2170C22F30E0D32F9E01BB
:10012000220F331F220F331F292B2BB92BB1982FEE
:100130009270990F990F922B9BB92BB1982F9470B5
:10014000990F990F922B9BB92BB1982F9870990FFB
:10015000990F922B9BB92BB1982F9071990F990FF2
:10016000922B9BB92BB1982F9072990F990F922BCC
:100170009BB925B186FB992790F9922B95B925B1AA
:10018000082E000C990B8078992756E09595879555
:100190005A95E1F7822B85B90E946A00ABCFF8949B
:0201A000FFCF8F
:00000001FF
